:0400000007EF00F016
:100008000B828DED00F0AFEF00F0000E946E000E45
:10001800956E93680F0EC16EF28EF28CF288000E08
:10002800836E3BEC00F0010E836E3BEC00F0020E99
:10003800836E3BEC00F0040E836E3BEC00F0080E80
:10004800836E3BEC00F0100E836E3BEC00F0200E4C
:10005800836E3BEC00F0400E836E3BEC00F0800EAC
:10006800836E3BEC00F013EF00F007EF00F0000E9A
:10007800086E000E076E000E0A6E000E096E094A21
:100088000A2A0ABE51EF00F02C0E095C010E0A582C
:10009800D8A051EF00F053EF00F043EF00F0074A0B
:1000A800082A08BE61EF00F02C0E075C010E085804
:1000B800D8A061EF00F063EF00F03FEF00F012000E
:1000C800000E026E000E016E000E046E000E036E2E
:1000D800034A042A04BE7AEF00F02C0E035C010EDA
:1000E8000458D8A07AEF00F07CEF00F06CEF00F035
:1000F800014A022A02BE8AEF00F02C0E015C010EB2
:100108000258D8A08AEF00F08CEF00F068EF00F0FA
:1001180012000600F2A293EF00F095EF00F0ADEFA9
:1001280000F0000E066E000E056E821E64EC00F0F4
:10013800054A062A06BEAAEF00F0065009E1140E89
:10014800055CD8A0AAEF00F0ACEF00F099EF00F042
:10015800F2920B9211000B900B92000109EF00F044
:020000040020DA
:08000000FFFFFFFFFFFFFFFF00
:020000040030CA
:0E000000FF071F1FFF8285FF0FC00FE00F409C
:00000001FF
